:020000040800F2
:10000000600600200D020008150200081702000813
:10001000190200081B0200081D0200080000000071
:100020000000000000000000000000001F020008A7
:100030002102000800000000230200082502000839
:1000400027020008270200082702000827020008EC
:1000500027020008270200082702000827020008DC
:1000600027020008270200082702000827020008CC
:1000700027020008270200082702000827020008BC
:1000800027020008270200082702000827020008AC
:10009000270200082702000827020008270200089C
:1000A000270200082702000827020008270200088C
:1000B000270200082702000827020008270200087C
:1000C000270200082702000827020008270200086C
:1000D000270200082702000827020008270200085C
:1000E000C9020008270200082702000827020008AA
:1000F000270200082702000827020008270200083C
:10010000270200082702000827020008270200082B
:10011000270200082702000827020008270200081B
:10012000270200082702000827020008270200080B
:1001300027020008270200082702000827020008FB
:1001400027020008270200082702000827020008EB
:1001500027020008270200082702000827020008DB
:1001600027020008270200082702000827020008CB
:1001700027020008270200082702000800000000EC
:10018000270200082702000800F002F800F02EF80D
:100190000AA090E8000C82448344AAF10107DA45E2
:1001A00001D100F023F8AFF2090EBAE80F0013F006
:1001B000010F18BFFB1A43F0010318476802000043
:1001C000780200000023002400250026103A28BFF2
:1001D00078C1FBD8520728BF30C148BF0B607047B9
:1001E0001FB500F012F91FBD10B510BD00F031F8B9
:1001F0001146FFF7F5FF00F0B9F800F04FF803B42F
:10020000FFF7F2FF03BC00F057F8000009488047F1
:1002100009480047FEE7FEE7FEE7FEE7FEE7FEE7E8
:10022000FEE7FEE7FEE7FEE704480549054A064B00
:1002300070470000090300088901000860000020E1
:1002400060060020600200206002002070477047B6
:100250007047754600F02CF8AE46050069465346D7
:1002600020F00700854618B020B5FFF7DDFFBDE898
:1002700020404FF000064FF000074FF000084FF00D
:10028000000BAC46ACE8C009ACE8C009ACE8C0095A
:10029000ACE8C00921F007018D46704710B504464F
:1002A000AFF300802046BDE81040FFF7A8BF000074
:1002B000004870470000002001491820ABBEFEE74F
:1002C000260002007047000070B51824C4F6000430
:1002D00020256420256000F07FF84FF4001664208C
:1002E000266000F079F86420256000F075F864203D
:1002F000266000F071F840F21440C4F201004FF49F
:100300000051016070BD00004EF68850CEF2000032
:1003100001684FF0000C41F47001016041F20001EE
:10032000C4F202010A6842F001020A60C1F808C082
:100330000B684FF6FF72CEF6F6221A400A604FF4B1
:100340008052CA600A6822F480220A60C1F818C08C
:100350004FF0006140F8801C704700004EF204101E
:10036000CEF200004FF4807101607047EFF310800F
:1003700072B641F24C00C4F202000168202241F042
:1003800001010160016841F004010160416941F02F
:10039000010141614FF090404FF48061016040F6EF
:1003A0000000C4F60000002101604FF6144040F246
:1003B0000041CFF6FF70C4F201010A50086840F412
:1003C00000500860C86840F40050C860FFF7C6FFDE
:1003D00062B600BFFEE700004EF21001CEF200014F
:1003E0004FF47A624FF0000C052301284A60C1F8EF
:1003F00008C00B6006DB00230A68D203FCD501337A
:100400008342F9D1C1F800C07047F1EE100A4FF6EF
:10041000FF71C0F2C03120EA010040F04070E1EE0F
:10042000100A704734040008000000206006000035
:04043000C4010008FB
:040000050800020DE0
:00000001FF
