:020000040800F2
:10000000600600200D020008150200081702000813
:10001000190200081B0200081D0200080000000071
:100020000000000000000000000000001F020008A7
:100030002102000800000000230200082502000839
:1000400027020008270200082702000827020008EC
:1000500027020008270200082702000827020008DC
:1000600027020008270200082702000827020008CC
:1000700027020008270200082702000827020008BC
:1000800027020008270200082702000827020008AC
:10009000270200082702000827020008270200089C
:1000A000270200082702000827020008270200088C
:1000B000270200082702000827020008270200087C
:1000C000270200082702000827020008270200086C
:1000D000270200082702000827020008270200085C
:1000E000270200082702000827020008270200084C
:1000F000270200082702000827020008270200083C
:10010000270200082702000827020008270200082B
:10011000270200082702000827020008270200081B
:10012000270200082702000827020008270200080B
:1001300027020008270200082702000827020008FB
:1001400027020008270200082702000827020008EB
:1001500027020008270200082702000827020008DB
:1001600027020008270200082702000827020008CB
:1001700027020008270200082702000800000000EC
:10018000270200082702000800F002F800F02EF80D
:100190000AA090E8000C82448344AAF10107DA45E2
:1001A00001D100F023F8AFF2090EBAE80F0013F006
:1001B000010F18BFFB1A43F0010318476C0200003F
:1001C0007C0200000023002400250026103A28BFEE
:1001D00078C1FBD8520728BF30C148BF0B607047B9
:1001E0001FB500F01BF91FBD10B510BD00F031F8B0
:1001F0001146FFF7F5FF00F0F5F800F04FF803B4F3
:10020000FFF7F2FF03BC00F057F8000009488047F1
:1002100009480047FEE7FEE7FEE7FEE7FEE7FEE7E8
:10022000FEE7FEE7FEE7FEE704480549054A064B00
:1002300070470000090300088901000860000020E1
:1002400060060020600200206002002070477047B6
:100250007047754600F02CF8AE46050069465346D7
:1002600020F00700854618B020B5FFF7DDFFBDE898
:1002700020404FF000064FF000074FF000084FF00D
:10028000000B21F00701AC46ACE8C009ACE8C0099E
:10029000ACE8C009ACE8C0098D46704710B504460B
:1002A000AFF300802046BDE81040FFF7A8BF000074
:1002B000004870470000002001491820ABBEFEE74F
:1002C00026000200704700B503461846D91703EB15
:1002D00011710911A3EB01130FE020204FF09041A1
:1002E0008861322000F070F84FF400104FF0904118
:1002F0008861322000F068F85B1E002BEDDCC8201E
:1003000000F062F800BD00001048006840F4700082
:100310000E4908600E48006840F001000C49086072
:1003200000208860084600680A49084008490860BB
:100330008814C8600846006820F480200860002007
:100340008861C803014980390860704788ED00E082
:1003500000100240FFFFF6EA1248C06C40F00100B6
:100360001049C8640846806D40F4003088654FF03D
:100370009040006A40F4E0404FF090410862084627
:10038000006840F0800008602320074908600420CE
:1003900005490C3908600846006840F00100086013
:1003A00070470000001002400C44004000BF0548A8
:1003B000006800F020000028F9D0024808300088CA
:1003C000C0B270471C440040002107E0002100E05B
:1003D000491C40F67B429142FADB401E0028F5DCC6
:1003E000704700000C48C06C40F001000A49C86426
:1003F00000204FF0904108600846006840F480609B
:100400000860FFF7A9FF06E0FFF7D0FF044620468B
:10041000FFF759FF00BFF7E7001002404FF04070B0
:10042000E1EE100A704700003804000800000020C8
:0804300060060000C401000891
:040000050800020DE0
:00000001FF
