:020000040800F2
:1000000068060020290200083102000833020008B7
:10001000350200083702000839020008000000001D
:100020000000000000000000000000003B0200088B
:100030003D020008000000003F02000841020008E5
:10004000430200084302000843020008430200087C
:10005000430200084302000843020008430200086C
:10006000430200084302000843020008430200085C
:10007000430200084302000843020008430200084C
:10008000430200084302000843020008430200083C
:10009000430200084302000843020008430200082C
:1000A000430200084302000843020008430200081C
:1000B000430200084302000843020008430200080C
:1000C00043020008430200084302000843020008FC
:1000D00043020008430200084302000843020008EC
:1000E00043020008430200084302000843020008DC
:1000F00043020008430200084302000843020008CC
:1001000043020008430200084302000843020008BB
:1001100043020008430200084302000843020008AB
:10012000430200084302000843020008430200089B
:10013000430200084302000843020008430200088B
:10014000430200084302000843020008430200087B
:10015000430200084302000843020008430200086B
:10016000430200084302000843020008430200085B
:100170004302000843020008430200080000000098
:10018000430200084302000800F002F800F03CF8C7
:100190000AA090E8000C82448344AAF10107DA45E2
:1001A00001D100F031F8AFF2090EBAE80F0013F0F8
:1001B000010F18BFFB1A43F0010318474C0200005F
:1001C0006C020000103A24BF78C878C1FAD85207F0
:1001D00024BF30C830C144BF04680C6070470000C1
:1001E0000023002400250026103A28BF78C1FBD840
:1001F000520728BF30C148BF0B6070471FB500F0E1
:10020000FDF81FBD10B510BD00F031F81146FFF725
:10021000F5FF00F08FF800F04FF803B4FFF7F2FF9E
:1002200003BC00F057F80000094880470948004720
:10023000FEE7FEE7FEE7FEE7FEE7FEE7FEE7FEE796
:10024000FEE7FEE704480549054A064B70470000F3
:10025000E502000889010008680000206806002007
:10026000680200206802002070477047704775469A
:1002700000F02CF8AE4605006946534620F0070012
:10028000854618B020B5FFF7DDFFBDE820404FF0F0
:1002900000064FF000074FF000084FF0000B21F070
:1002A0000701AC46ACE8C009ACE8C009ACE8C0093D
:1002B000ACE8C0098D46704710B50446AFF3008026
:1002C0002046BDE81040FFF7A8BF00000048704777
:1002D0000400002001491820ABBEFEE72600020002
:1002E000704700001048006840F470000E49086034
:1002F0000E48006840F001000C490860002088604A
:10030000084600680A490840084908608814C8601F
:100310000846006820F48020086000208861C80337
:10032000014980390860704788ED00E00010024004
:10033000FFFFF6EA2E48C06C40F001002C49C8646B
:10034000C8144FF0904108600846006A40F48010DD
:1003500008622748806D40F001002549886540F219
:100360008F108904886242F20F70C8624FF44C709B
:100370008861002048630120086200204862012053
:1003800008601B48C06C40F001001949C8644FF078
:100390009040006840F400504FF0904108600846DB
:1003A000006A40F0007008621148806D40F0020061
:1003B0000F4988654FF47A600E49086041200D4965
:1003C0001039086001200B490839086009492839AB
:1003D00008600CE000BF07481838006800F0020011
:1003E0000028F8D003480C30006803490860F1E7A2
:1003F0000010024028040040000000204FF0407030
:10040000E1EE100A704700002804000800000020F8
:1004100004000000C40100082C04000804000020AF
:0C04200064060000E0010008000000007D
:0400000508000229C4
:00000001FF
