:020000040800F2
:10000000600600200D020008150200081702000813
:10001000190200081B0200081D0200080000000071
:100020000000000000000000000000001F020008A7
:100030002102000800000000230200082502000839
:1000400027020008270200082702000827020008EC
:1000500027020008270200082702000827020008DC
:1000600027020008270200082702000827020008CC
:1000700027020008270200082702000827020008BC
:1000800027020008270200082702000827020008AC
:10009000270200082702000827020008270200089C
:1000A000270200082702000827020008270200088C
:1000B000270200082702000827020008270200087C
:1000C000270200082702000827020008270200086C
:1000D000270200082702000827020008270200085C
:1000E000270200082702000827020008270200084C
:1000F000270200082702000827020008270200083C
:10010000270200082702000827020008270200082B
:10011000270200082702000827020008270200081B
:10012000270200082702000827020008270200080B
:1001300027020008270200082702000827020008FB
:1001400027020008270200082702000827020008EB
:1001500027020008270200082702000827020008DB
:1001600027020008270200082702000827020008CB
:1001700027020008270200082702000800000000EC
:10018000270200082702000800F002F800F02EF80D
:100190000AA090E8000C82448344AAF10107DA45E2
:1001A00001D100F023F8AFF2090EBAE80F0013F006
:1001B000010F18BFFB1A43F00103184708020000A3
:1001C000180200000023002400250026103A28BF52
:1001D00078C1FBD8520728BF30C148BF0B607047B9
:1001E0001FB500F0EAF81FBD10B510BD00F031F8E2
:1001F0001146FFF7F5FF00F0CDF800F04FF803B41B
:10020000FFF7F2FF03BC00F057F8000009488047F1
:1002100009480047FEE7FEE7FEE7FEE7FEE7FEE7E8
:10022000FEE7FEE7FEE7FEE704480549054A064B00
:1002300070470000C9020008890100086000002022
:1002400060060020600200206002002070477047B6
:100250007047754600F02CF8AE46050069465346D7
:1002600020F00700854618B020B5FFF7DDFFBDE898
:1002700020404FF000064FF000074FF000084FF00D
:10028000000B21F00701AC46ACE8C009ACE8C0099E
:10029000ACE8C009ACE8C0098D46704710B504460B
:1002A000AFF300802046BDE81040FFF7A8BF000074
:1002B000004870470000002001491820ABBEFEE74F
:1002C00026000200704700001048006840F47000EB
:1002D0000E4908600E48006840F001000C490860B3
:1002E00000208860084600680A49084008490860FC
:1002F0008814C8600846006820F480200860002048
:100300008861C803014980390860704788ED00E0C2
:1003100000100240FFFFF6EA0F48806D40F4003005
:100320000D4988650846C06C40F00100C8644FF470
:10033000E0604FF0904108622020086040F2A11078
:1003400006490860082005490C390860084600681D
:1003500040F0010008607047001002400C4400406B
:1003600000BF0549096801F080010029F9D0C1B238
:10037000014A0C32118070471C44004007E0002104
:1003800000E0491C40F67B429142FADB401E002807
:10039000F5DC7047FFF7C0FF0EE04820FFF7E0FFF5
:1003A0006920FFF7DDFF0D20FFF7DAFF0A20FFF7D6
:1003B000D7FF6420FFF7E2FFEFE74FF04070E1EE78
:1003C000100A7047D40300080000002060060000F7
:0403D000C40100085C
:040000050800020DE0
:00000001FF
