:020000040800F2
:100000008006002031020008390200083B02000887
:100010003D0200083F020008410200080000000005
:100020000000000000000000000000004302000883
:1000300045020008000000004702000849020008CD
:100040004B0200084B0200084B0200084B0200085C
:100050004B0200084B0200084B0200084B0200084C
:100060004B0200084B0200084B0200084B0200083C
:100070004B0200084B0200084B0200084B0200082C
:100080004B0200084B0200084B0200084B0200081C
:100090004B0200084B0200084B0200084B0200080C
:1000A0004B0200084B0200084B0200084B020008FC
:1000B0004B0200084B0200084B0200084B020008EC
:1000C0004B0200084B0200084B0200084B020008DC
:1000D0004B0200084B0200084B0200084B020008CC
:1000E0004B0200084B0200084B0200084B020008BC
:1000F0004B0200084B0200084B0200084B020008AC
:100100004B0200084B0200084B0200084B0200089B
:100110004B0200084B0200084B0200084B0200088B
:100120004B0200084B0200084B0200084B0200087B
:100130004B0200084B0200084B0200084B0200086B
:100140004B0200084B0200084B0200084B0200085B
:100150004B0200084B0200084B0200084B0200084B
:100160004B0200084B0200084B0200084B0200083B
:100170004B0200084B0200084B0200080000000080
:100180004B0200084B02000800F002F800F041F8B2
:100190000AA090E8000C82448344AAF10107DA45E2
:1001A00001D100F036F8AFF2090EBAE80F0013F0F3
:1001B000010F18BFFB1A43F001031847D00D0000D0
:1001C000F00D0000103A24BF78C878C1FAD8520761
:1001D00024BF30C830C144BF04680C6070470000C1
:1001E0000023002400250026103A28BF78C1FBD840
:1001F000520728BF30C148BF0B607047642900F028
:100200007780002070471FB500F0BAFE1FBD10B503
:1002100010BD00F033F91146FFF7F5FF00F0CEF9FD
:1002200000F051F903B4FFF7F2FF03BC00F058F9F6
:100230000948804709480047FEE7FEE7FEE7FEE77A
:10024000FEE7FEE7FEE7FEE7FEE7FEE704480549B6
:10025000054A064B70470000F104000889010008B8
:100260008000002080060020800200208002002004
:100270000FB4044910B503AA029800F0D1F810BCDD
:100280005DF814FB180000202DE9F0410E460446ED
:10029000002020622046E168884730B3252805D039
:1002A000D4E901219047206A401CF2E7E16820462A
:1002B00000278847050018D0A5F14100192802D869
:1002C00020354FF400673246294620462760FFF765
:1002D00095FF40B1012804D0F61D26F00706083628
:1002E000D8E7361DD6E72846DAE7206ABDE8F08170
:1002F0002DE9F0410646002410687529314616A5FF
:1003000010D0AFF30080002802DA404213A507E0C6
:1003100031688A0701D512A502E0490704D511A565
:10032000012401E0AFF3008000210A2206F1240736
:1003300009E0B0FBF2FCB0FBF2F302FB1C00303032
:1003400078541846491C0028F3D123462A463046E3
:10035000BDE8F04100F00BB8000000002D000000E7
:100360002B000000200000007047704770472DE907
:10037000F0470D4699469246044600F1240801686C
:10038000880604D5E06921F01001216000E0012019
:10039000A84201DD471B00E00027A1697A1902EBA2
:1003A0000900081AA0612078C00602D42046AFF3E5
:1003B0000080002608E0D4E901211AF806009047E1
:1003C000206A401C761C20624E45F4DB2078C00673
:1003D0000AD52046AFF3008006E0D4E901213020A1
:1003E0009047206A401C2062381EA7F10107F4DC08
:1003F00007E0D4E9012118F805009047206A401C65
:100400002062281EA5F10105F3DC2046AFF3008031
:100410002078000602D50220BDE8F0870120FBE726
:10042000074B70B50D467B4400F011F80446284692
:1004300000F020F810B14FF0FF3070BD204670BDC5
:100440008301000001694A1C02610878704700B509
:100450008FB0CDE901310021059105497944CDE9FD
:10046000031011466846FFF70FFF0FB000BD0000F4
:10047000E5FFFFFF007B00F080007047754600F04D
:100480002BF8AE4605006946534620F00700854626
:1004900018B020B5FFF7DAFEBDE820404FF00006A7
:1004A0004FF000074FF000084FF0000B21F007015C
:1004B000AC46ACE8C009ACE8C009ACE8C009ACE89F
:1004C000C0098D46704710B50446AFF30080204642
:1004D000BDE81040FFF7A6BE004870471C00002092
:1004E00001491820ABBEFEE726000200704700005D
:1004F0001048006840F470000E4908600E4800681B
:1005000040F001000C49086000208860084600683F
:100510000A490840084908608814C860084600680D
:1005200020F48020086000208861C80301498039D8
:100530000860704788ED00E000100240FFFFF6EA17
:100540001148C06C40F001000F49C8640846806D36
:1005500040F4003088654FF09040006A40F4EE406F
:100560004FF090410862A020086040F2A1100749B6
:1005700008600C2005490C3908600846006840F006
:100580000100086070470000001002400C44004069
:1005900000BF0549096801F080010029F9D0024A2D
:1005A0000C321080704700001C44004010B5034618
:1005B0000C461846FFF7ECFF10BD00002DED048B34
:1005C0004A48C06C40F001004849C8644748883038
:1005D000006840F04050C1F888000846C06C40F404
:1005E0000050C8640020424988600846806840F096
:1005F000805088600A2000F0A7F83D48806840F0ED
:1006000000403B498860642000F09EF84FF40000F1
:10061000374988614FF4886008630846806840F075
:10062000010088600846D0F8080340F44000C1F893
:1006300008030846D0F8080320F08070C1F80803CA
:100640000A2000F081F8FFF77BFF2AA0FFF710FED9
:100650004BE02748806840F004002549886000BFCF
:100660002348006800F004000028F9D02048006CFE
:10067000264908600846006800F082FA41EC190B30
:100680009FED230B53EC102B00F022F941EC180BDB
:100690009FED210B53EC102B00F08AFA204A03C285
:1006A0009FED200B53EC102B1D4890ED000B51ECEF
:1006B000100B00F07BFB41EC190B9FED1C0B53EC76
:1006C000102B00F005F941EC180B9FED1A0B53ECC1
:1006D000102B00F055F8194A03C20C48016818A005
:1006E000FFF7C6FD642000F02FF8B2E700100240CB
:1006F0000000045053544D333266342054656D70FD
:1007000065726174757265200D0A0000000000209A
:100710000000000000FEAF406666666666660A403E
:100720000800002052B81E85EB51E83F7B14AE470D
:10073000E17A643F00000000000039401000002012
:1007400025640D0A000000004FF47A614FF0E022AA
:1007500051610021916105211161002108E000BF74
:100760004FF0E022126902F48032002AF8D0491CCE
:100770008142F4DB00214FF0E0221161704700005C
:1007800010B591EA030F48BF83F0004300F11683D0
:10079000841A71EB030C05D2121943EB0C03001BF6
:1007A00061EB0C01DFF824E14FEA1154A4EB135C78
:1007B0001EEA430F18BF9EEA445F73D023EA0E037C
:1007C000DCF1200E21EA045143F4801332D322FAE3
:1007D0000CFE10EB0E0023FA0CFE41EB0E01CCF1E7
:1007E000200E03FA0EFE10EB0E0051F10001B1F5E0
:1007F000801FCCF1200E32D201EB045112FA0EF21E
:10080000BDE8104058BF7047401C38BF5FEA420245
:1008100018BF7047002814BF20F0010041F100010B
:100820004FEA410313F5001F38BF7047A1F1C041E3
:1008300000F0B6BA012A43EB0302ACF1200CDCF164
:100840001F0E32BF4FF0000E23FA0CF310EB030023
:1008500041EB0451B4EB115FD0D0A1EB045101F591
:10086000801149085FEA300001EB04510ED350F1CA
:10087000000038BF12FA0EFE08D1BDE81040C9E7EB
:10088000401C38BF5FEA4202CAD1C3E7BDE810404E
:100890004FEA410313F5001F38BF7047A1F1C04173
:1008A00000F07EBA9EEA445F08D011EA5E0FBDE810
:1008B000104004BF01F0004100207047BDE8104027
:1008C00070B500F01FFA00BF64FBBE3E0000E0FF01
:1008D0002DE9C04130B4DFF8A0C23CEA111418BFC2
:1008E0003CEA131400F0EC8081EA03051CEA1114C1
:1008F00044EAD57418BF1CEA131500F0C780A4EBB6
:1009000005044FF0004545EAC12145EAC32341EA09
:10091000505143EA525304F17F74994204F5003474
:100920004FEAC0204FEAC22208BF904200F09C80EC
:100930004FEA13650FF24016765D4FEA134506FB4A
:1009400005F7C7F1807706FB07F74FEAD737A7FB14
:1009500003687642C8F58038A7FB06CE38BFA8F1F9
:10096000010807FB08E64FF0000EA6FB028CE6FB31
:1009700003CEDCF1000CCEF1004E38BFAEF1010E1B
:10098000A6FB0C584FF000074FF00005E6FB0E8762
:10099000A1FB08C6A0FB07CE16EB0E0645F100052D
:1009A000E1FB076515F1E04E7EBFA4F580345FEAF8
:1009B00046066D4116F1800745F100054FEA1727FD
:1009C0004FEA066647EA0567A6F1DE46B6F1805FA4
:1009D0004FEA15251FD9384624F0010C05EBC471E8
:1009E000BCF1FE6F01EB0C1102D8F0BCBDE8008138
:1009F00024425CBF01F5801E9EEAC47F02D4F0BC95
:100A0000BDE80081244238D4F0BCA1F1C041BDE86A
:100A1000004100F0C5B94FEAD22242EA43524FEA00
:100A2000D323A7FB02864FEAD02040EA415007FBC0
:100A300003661EEA0E0F4FEAD12105FB026658BF7E
:100A4000A6EB0056B6EB00564FEA520E4EEAC37EB6
:100A500018EB0E0E56EB530EBDD518EB02085E4197
:100A60007F1C55F10005B6E74FF480154FF00007E5
:100A70004FF000064FF00008ADE7F0BC4FF000006B
:100A800001F1C04101F00041BDE8008111EA0C1FF5
:100A90000CEA131500D00CE013EA0C1F00F02580BF
:100AA0004FF00000F0BC81EA030101F00041BDE815
:100AB0000081F0BCBDE8004181EA030100F070B99B
:100AC000F0BCBDE8004170B500F01CF9097EFC3EA9
:100AD00000F007B881EA03014FF0000001F0004187
:100AE000704781EA030100F05BB9F0BCBDE800414A
:100AF0004FF0000021497047FFFDFBF9F7F5F4F2D4
:100B0000F0EEEDEBE9E8E6E4E3E1E0DEDDDBDAD8A8
:100B1000D7D5D4D3D1D0CFCDCCCBCAC8C7C6C5C406
:100B2000C2C1C0BFBEBDBCBBBAB9B8B7B6B5B4B31D
:100B3000B2B1B0AFAEADACABAAA9A8A8A7A6A5A408
:100B4000A3A3A2A1A09F9F9E9D9C9C9B9A999998CC
:100B50009797969595949393929191908F8F8E8E6F
:100B60008D8C8C8B8B8A89898888878786858584FC
:100B700084838382828181800000FF070000F87FE8
:100B800010F0004248BF4042B0FA80F310FA03F17F
:100B90000AD0C3F11D0303F580634FEA415002EB15
:100BA000035202EBD12170474FF000007047000064
:100BB000DFF848C170B51CEA111E1EBF1CEA1315F0
:100BC0009EEA0C0F95EA0C0F00F06F8081EA030497
:100BD00023EA4C134EEAD47E21EA4C1141F48011F1
:100BE00043F48013AE44A1FB024CA0FB0365AEF1BD
:100BF0007F7E361955EB0C05A1FB034C4CF100032D
:100C0000A0FB021C16EB0C06654153F100030942E0
:100C100018BF46F0010613F4007F0BD14FEA0331F1
:100C20004FEA0530340341EA155140EA16506FF09F
:100C300003020AE04FEAC3214FEAC520F40241EA69
:100C4000555140EA56506FF0020202EB2E4201EB82
:100C5000025585EACE710AD05FEA440C18BF24F031
:100C6000004450F1000041F1000120EAD47040F24C
:100C7000FE7C624500D270BDA84214BF4FF0804494
:100C80004FF04044002E08BF0024BEF1806FA8BF83
:100C9000A1F1C041BDE8704080F282804FF00000B9
:100CA00001F1C04101F0004170479EEA0C0F0CEACF
:100CB000131518BF95EA0C0F06D04FF0000081EA1B
:100CC000030E0EF0004170BD00F01CF88900013EDB
:100CD00000F007B800F009B84FEA430C5FEA5C5C2B
:100CE00008D081EA030100F05BB84FEA410C5FEAEB
:100CF0005C5CF6D14FF00000014970470000FF072F
:100D00000000F87F0EF1020E2EF0030E5EF8046B69
:100D1000364205D4012A43EB030515F5001F12D80E
:100D2000012841EB010C1CF5001F0CD80ED14FEA35
:100D3000D17C15F5001F0CEB4C0C0CF1020C08BF1C
:100D40004CEBD37C04E04FF0080C01E04FEAD37C7D
:100D50000CEB4C0526FA05F606F00706B6F1040C76
:100D600006D20EEB860CBDE870404CF0010C6047DB
:100D7000DFE80CF0090B02024FF000414FF00000D9
:100D8000A1F5002170BD19461046012851EB010460
:100D900018BFD4F5001484BF002001F0004170BDDD
:100DA0000808A0F500114FEA3101704710B591EA2B
:100DB000030F48BF83F000433FF5EAAC841A71EBA0
:100DC000030C07D212198CF0004C43EB0C03001BF0
:100DD00061EB0C01DFF8A4E14FEA1154A4EB135CC2
:100DE0001EEA430F18BF9EEA445F00F0B08023EA7A
:100DF0006E03524221EA0451C3EB6E0338BF5B1EFF
:100E0000DCF1200E25D322FA0CFE10EB0E0043FA83
:100E10000CFE41EB0E01CCF1200E03FA0EFE10EB9E
:100E20000E0051F10001CCF1200E29D412FA0EF27D
:100E300001EB0451BDE8104058BF7047401C1CBF77
:100E4000B2F1004F704700280CBF491C20F0010090
:100E5000704712EB020E43EB030218BF4FF0010E76
:100E60004EEA4202ACF1200CDCF11E0E54D943FADA
:100E70000CFE10EB0E0051F1FF31CCF11E0ED5D55A
:100E80000EF1010E12FA0EFE404141EB010101EBA1
:100E9000445C5FEA5C5C10D910EBDE7001EB04513E
:100EA00038BFBEF1004FBDE8104018BF70470028A2
:100EB0000CBF491C20F00100704730D24FEAD42CFF
:100EC00011F5001124F400641BD0B1FA81F20B3A41
:100ED000A41AA41ED2F12003914030FA03F319435F
:100EE000904001EBCC71002C01EB0451BDE81040A7
:100EF000A8BF704701F1C0414FF0000001F0004170
:100F00007047B0FA80F310FA03F100D110BDE41A73
:100F1000173C4805C90AE4E701EB045110BD49102C
:100F200001EB0451BDE810404FEA300002E04FF001
:100F3000000170474A0008BF0042F8D0B2F5001F18
:100F400028BF704701F000414FF0000070479EEA53
:100F5000445F07D011EA5E0FBDE8104004BF0021D6
:100F600000207047BDE8104070B5FFF7CBFE00BF12
:100F700040DFF63E83F00041104670470000E0FF7E
:100F80004FF04070E1EE100A70470000AC0F00080F
:100F9000000000201C000000C4010008C80F000869
:100FA0001C00002064060000E001000800000000B2
:100FB0000000000000000000000000000000000031
:080FC000000000000100000028
:0400000508000231BC
:00000001FF
