:020000040800F2
:100000008006002031020008390200083B02000887
:100010003D0200083F020008410200080000000005
:100020000000000000000000000000004302000883
:1000300045020008000000004702000849020008CD
:100040004B0200084B0200084B0200084B0200085C
:100050004B0200084B0200084B0200084B0200084C
:100060004B0200084B0200084B0200084B0200083C
:100070004B0200084B0200084B0200084B0200082C
:100080004B0200084B0200084B0200084B0200081C
:100090004B0200084B0200084B0200084B0200080C
:1000A0004B0200084B0200084B0200084B020008FC
:1000B0004B0200084B0200084B0200084B020008EC
:1000C0004B0200084B0200084B0200084B020008DC
:1000D0004B0200084B0200084B0200084B020008CC
:1000E0004B0200084B0200084B0200084B020008BC
:1000F0004B0200084B0200084B0200084B020008AC
:100100004B0200084B0200084B0200084B0200089B
:100110004B0200084B0200084B0200084B0200088B
:100120004B0200084B0200084B0200084B0200087B
:100130004B0200084B0200084B0200084B0200086B
:100140004B0200084B0200084B0200084B0200085B
:100150004B0200084B0200084B0200084B0200084B
:100160004B0200084B0200084B0200084B0200083B
:100170004B0200084B0200084B0200080000000080
:100180004B0200084B02000800F002F800F041F8B2
:100190000AA090E8000C82448344AAF10107DA45E2
:1001A00001D100F036F8AFF2090EBAE80F0013F0F3
:1001B000010F18BFFB1A43F0010318474405000064
:1001C00064050000103A24BF78C878C1FAD85207F5
:1001D00024BF30C830C144BF04680C6070470000C1
:1001E0000023002400250026103A28BF78C1FBD840
:1001F000520728BF30C148BF0B607047642900F028
:100200007780002070471FB500F075FA1FBD10B54C
:1002100010BD00F033F91146FFF7F5FF00F0D0F9FB
:1002200000F051F903B4FFF7F2FF03BC00F058F9F6
:100230000948804709480047FEE7FEE7FEE7FEE77A
:10024000FEE7FEE7FEE7FEE7FEE7FEE704480549B6
:10025000054A064B70470000F104000889010008B8
:100260008000002080060020800200208002002004
:100270000FB4044910B503AA029800F0D1F810BCDD
:100280005DF814FB180000202DE9F0410E460446ED
:10029000002020622046E168884730B3252805D039
:1002A000D4E901219047206A401CF2E7E16820462A
:1002B00000278847050018D0A5F14100192802D869
:1002C00020354FF400673246294620462760FFF765
:1002D00095FF40B1012804D0F61D26F00706083628
:1002E000D8E7361DD6E72846DAE7206ABDE8F08170
:1002F0002DE9F0410646002410687529314616A5FF
:1003000010D0AFF30080002802DA404213A507E0C6
:1003100031688A0701D512A502E0490704D511A565
:10032000012401E0AFF3008000210A2206F1240736
:1003300009E0B0FBF2FCB0FBF2F302FB1C00303032
:1003400078541846491C0028F3D123462A463046E3
:10035000BDE8F04100F00BB8000000002D000000E7
:100360002B000000200000007047704770472DE907
:10037000F0470D4699469246044600F1240801686C
:10038000880604D5E06921F01001216000E0012019
:10039000A84201DD471B00E00027A1697A1902EBA2
:1003A0000900081AA0612078C00602D42046AFF3E5
:1003B0000080002608E0D4E901211AF806009047E1
:1003C000206A401C761C20624E45F4DB2078C00673
:1003D0000AD52046AFF3008006E0D4E901213020A1
:1003E0009047206A401C2062381EA7F10107F4DC08
:1003F00007E0D4E9012118F805009047206A401C65
:100400002062281EA5F10105F3DC2046AFF3008031
:100410002078000602D50220BDE8F0870120FBE726
:10042000074B70B50D467B4400F011F80446284692
:1004300000F020F810B14FF0FF3070BD204670BDC5
:100440008701000001694A1C02610878704700B505
:100450008FB0CDE901310021059105497944CDE9FD
:10046000031011466846FFF70FFF0FB000BD0000F4
:10047000E5FFFFFF007B00F080007047754600F04D
:100480002BF8AE4605006946534620F00700854626
:1004900018B020B5FFF7DAFEBDE820404FF00006A7
:1004A0004FF000074FF000084FF0000B21F007015C
:1004B000AC46ACE8C009ACE8C009ACE8C009ACE89F
:1004C000C0098D46704710B50446AFF30080204642
:1004D000BDE81040FFF7A6BE004870471C00002092
:1004E00001491820ABBEFEE726000200704700005D
:1004F0001048006840F470000E4908600E4800681B
:1005000040F001000C49086000208860084600683F
:100510000A490840084908608814C860084600680D
:1005200020F48020086000208861C80301498039D8
:100530000860704788ED00E000100240FFFFF6EA17
:100540001248C06C40F001001049C8640846806D34
:1005500040F4003088654FF09040006A40F4EE406F
:100560004FF0904108620846006840F0A000086023
:1005700040F2A110064908600C2005490C390860BA
:100580000846006840F00100086070470010024013
:100590000C44004000BF0549096801F080010029B2
:1005A000F9D0024A0C321080704700001C44004011
:1005B00010B503460C461846FFF7ECFF10BD0000CF
:1005C0003348C06C40F001003149C864304888307D
:1005D000006840F04050C1F888002E484FF090412C
:1005E00008600846006840F00C0008600846C06AD1
:1005F00040F00200C8622648C06C40F40050244914
:10060000C8640020244988600846806840F0805013
:1006100088600A2000F054F81F48806840F00040CD
:100620001D498860642000F04BF81B48806840F04A
:100630000100194988600A2000F042F84FF4C070A8
:10064000154908630A2000F03BF8FFF779FF1EE028
:100650001148806840F004000F49886000BF0E48D0
:10066000006800F004000028F9D00B48006C0B492A
:100670000880642000F024F809A0FFF7F9FD07487E
:1006800001880DA0FFF7F4FD642000F019F8DFE702
:100690000010024000F0FFAB0000045000000020FA
:1006A00053544D333266342054656D7065726174F5
:1006B000757265200D0A000025640D0A0000000017
:1006C0004FF47A614FF0E0225161002191610521E0
:1006D0001161002108E000BF4FF0E022126902F42E
:1006E0008032002AF8D0491C8142F4DB00214FF00F
:1006F000E022116170474FF04070E1EE100A704740
:1007000020070008000000201C000000C4010008B1
:100710003C0700081C00002064060000E0010008FF
:1007200000000000000000000000000000000000C9
:0C073000000000000000000001000000BC
:0400000508000231BC
:00000001FF
