:020000040800F2
:10000000680600200D02000815020008170200080B
:10001000190200081B0200081D0200080000000071
:100020000000000000000000000000001F020008A7
:100030002102000800000000230200082502000839
:1000400027020008270200082702000827020008EC
:1000500027020008270200082702000827020008DC
:1000600027020008270200082702000827020008CC
:1000700027020008270200082702000827020008BC
:1000800027020008270200082702000827020008AC
:10009000270200082702000827020008270200089C
:1000A000270200082702000827020008270200088C
:1000B000270200082702000827020008270200087C
:1000C000270200082702000827020008270200086C
:1000D000270200082702000827020008270200085C
:1000E000C9020008270200082702000827020008AA
:1000F000270200082702000827020008270200083C
:10010000270200082702000827020008270200082B
:10011000270200082702000827020008270200081B
:10012000270200082702000827020008270200080B
:1001300027020008270200082702000827020008FB
:1001400027020008270200082702000827020008EB
:1001500027020008270200082702000827020008DB
:1001600027020008270200082702000827020008CB
:1001700027020008270200082702000800000000EC
:10018000270200082702000800F002F800F02EF80D
:100190000AA090E8000C82448344AAF10107DA45E2
:1001A00001D100F023F8AFF2090EBAE80F0013F006
:1001B000010F18BFFB1A43F001031847DC020000CF
:1001C000EC0200000023002400250026103A28BF7E
:1001D00078C1FBD8520728BF30C148BF0B607047B9
:1001E0001FB500F04CF91FBD10B510BD00F031F87F
:1001F0001146FFF7F5FF00F0D7F800F04FF803B411
:10020000FFF7F2FF03BC00F057F8000009488047F1
:1002100009480047FEE7FEE7FEE7FEE7FEE7FEE7E8
:10022000FEE7FEE7FEE7FEE704480549054A064B00
:10023000704700004503000889010008680000209D
:10024000680600206802002068020020704770479E
:100250007047754600F02CF8AE46050069465346D7
:1002600020F00700854618B020B5FFF7DDFFBDE898
:1002700020404FF000064FF000074FF000084FF00D
:10028000000BAC46ACE8C009ACE8C009ACE8C0095A
:10029000ACE8C00921F007018D46704710B504464F
:1002A000AFF300802046BDE81040FFF7A8BF000074
:1002B000004870470000002001491820ABBEFEE74F
:1002C00026000200704700002DE9F04381B040F2A3
:1002D0001448C4F20108D8F80000B0F5005F07D157
:1002E00040F264004FF400596424C2F200000BE0B5
:1002F000D8F80000B0F5806F21D140F260004FF4D3
:100300008069C824C2F20000016818270131016029
:10031000C4F60007202520463D6000F097F84FF412
:10032000001620463E6000F091F820463D6000F047
:100330008DF820463E6000F089F8C8F8009001B0C2
:10034000BDE8F0834EF68850CEF2000001684FF011
:10035000000C41F47001016041F20001C4F202019D
:100360000A6842F001020A60C1F808C00B684FF643
:10037000FF72CEF6F6221A400A604FF48052CA602D
:100380000A6822F480220A60C1F818C04FF00061A8
:1003900040F8801C704700004EF20410CEF20000BE
:1003A0004FF4807101607047EFF3108072B641F234
:1003B0004C00C4F20200016840F2004241F0010129
:1003C00001600168C4F2010241F0020101600168AC
:1003D00041F004010160416941F0010141614FF0C8
:1003E00090404FF48061016040F20040C4F600008C
:1003F00000210160C0F800144FF61441CFF6FF71E0
:10040000535843F020035350116841F400511160D8
:10041000D16841F40051D1600121C0F21001C160E6
:100420004FF61040CFF6FF70115841F48071115013
:10043000106840F480601060D06840F48060D06044
:10044000FFF7AAFF62B600BFFEE700004EF2100100
:10045000CEF200014FF47A624FF0000C0523012820
:100460004A60C1F808C00B6006DB00230A68D203AB
:10047000FCD501338342F9D1C1F800C07047F1EED9
:10048000100A4FF6FF71C0F2C03120EA010040F0BF
:100490004070E1EE100A7047A80400080000002038
:0804A00068060000C401000819
:040000050800020DE0
:00000001FF
