:020000040800F2
:10000000600600200D020008150200081702000813
:10001000190200081B0200081D0200080000000071
:100020000000000000000000000000001F020008A7
:100030002102000800000000230200082502000839
:1000400027020008270200082702000827020008EC
:1000500027020008270200082702000827020008DC
:1000600027020008270200082702000827020008CC
:1000700027020008270200082702000827020008BC
:1000800027020008270200082702000827020008AC
:10009000270200082702000827020008270200089C
:1000A000270200082702000827020008270200088C
:1000B000270200082702000827020008270200087C
:1000C000270200082702000827020008270200086C
:1000D0002702000827020008AD03000827020008D5
:1000E000270200082702000827020008270200084C
:1000F000270200082702000827020008270200083C
:10010000270200082702000827020008270200082B
:10011000270200082702000827020008270200081B
:10012000270200082702000827020008270200080B
:1001300027020008270200082702000827020008FB
:1001400027020008270200082702000827020008EB
:1001500027020008270200082702000827020008DB
:1001600027020008270200082702000827020008CB
:1001700027020008270200082702000800000000EC
:10018000270200082702000800F002F800F02EF80D
:100190000AA090E8000C82448344AAF10107DA45E2
:1001A00001D100F023F8AFF2090EBAE80F0013F006
:1001B000010F18BFFB1A43F001031847AC020000FF
:1001C000BC0200000023002400250026103A28BFAE
:1001D00078C1FBD8520728BF30C148BF0B607047B9
:1001E0001FB500F034F91FBD10B510BD00F031F897
:1001F0001146FFF7F5FF00F0EFF800F04FF803B4F9
:10020000FFF7F2FF03BC00F057F8000009488047F1
:1002100009480047FEE7FEE7FEE7FEE7FEE7FEE7E8
:10022000FEE7FEE7FEE7FEE704480549054A064B00
:10023000704700000D0300088901000860000020DD
:1002400060060020600200206002002070477047B6
:100250007047754600F02CF8AE46050069465346D7
:1002600020F00700854618B020B5FFF7DDFFBDE898
:1002700020404FF000064FF000074FF000084FF00D
:10028000000BAC46ACE8C009ACE8C009ACE8C0095A
:10029000ACE8C00921F007018D46704710B504464F
:1002A000AFF300802046BDE81040FFF7A8BF000074
:1002B000004870470000002001491820ABBEFEE74F
:1002C0002600020070470000F0B581B0C11700EBB6
:1002D000117121F00F01401A012812DB1824C4F615
:1002E0000004451C20264FF4001700BF3220266072
:1002F00000F094F83220276000F090F8013D012DC5
:10030000F4DCC82000F08AF801B0F0BD4EF6885049
:10031000CEF2000001684FF0000C41F47001016062
:1003200041F20001C4F202010A6842F001020A60CF
:10033000C1F808C00B684FF6FF72CEF6F6221A40DD
:100340000A604FF48052CA600A6822F480220A6070
:10035000C1F818C04FF0006140F8801C70470000E1
:1003600041F24C00C4F20200016841F00101016059
:10037000C16841F40031C1602020C4F6000001686A
:1003800041F4E04101604FF09040016841F080018C
:10039000016044F20040C4F200002321C160042146
:1003A0000160016841F001010160704780B544F2CD
:1003B0001C40C4F200000168890658BF80BD008956
:1003C000C0B2FFF781FF80BD4EF20410CEF20000F4
:1003D0004021016070470000EFF3108072B641F2D7
:1003E0004C00C4F20200016841F0010101604FF0CD
:1003F000904000210160016841F480610160FFF7D5
:10040000AFFF44F20040C4F20000016841F0200157
:100410000160FFF7D9FF62B6FEE700004EF210015F
:10042000CEF200014FF47A624FF0000C0523012850
:100430004A60C1F808C00B6006DB00230A68D203DB
:10044000FCD501338342F9D1C1F800C07047F1EE09
:10045000100A4FF6FF71C0F2C03120EA010040F0EF
:100460004070E1EE100A7047780400080000002098
:0804700060060000C401000851
:040000050800020DE0
:00000001FF
